{
  "address": "0x4EE6eCAD1c2Dae9f525404De8555724e3c35d07B",
  "abi": [
    {
      "inputs": [
        {
          "internalType": "address",
          "name": "tokenA",
          "type": "address"
        },
        {
          "internalType": "address",
          "name": "tokenB",
          "type": "address"
        }
      ],
      "name": "addressCompare",
      "outputs": [
        {
          "internalType": "bool",
          "name": "",
          "type": "bool"
        }
      ],
      "stateMutability": "pure",
      "type": "function"
    },
    {
      "inputs": [
        {
          "internalType": "address",
          "name": "_pool0",
          "type": "address"
        },
        {
          "internalType": "address",
          "name": "_pool1",
          "type": "address"
        }
      ],
      "name": "calculateProfit",
      "outputs": [
        {
          "internalType": "uint256",
          "name": "profit",
          "type": "uint256"
        }
      ],
      "stateMutability": "view",
      "type": "function"
    },
    {
      "inputs": [
        {
          "internalType": "address",
          "name": "_pool0",
          "type": "address"
        },
        {
          "internalType": "address",
          "name": "_pool1",
          "type": "address"
        }
      ],
      "name": "getReserves",
      "outputs": [
        {
          "components": [
            {
              "internalType": "uint256",
              "name": "daiA",
              "type": "uint256"
            },
            {
              "internalType": "uint256",
              "name": "wethA",
              "type": "uint256"
            },
            {
              "internalType": "uint256",
              "name": "daiB",
              "type": "uint256"
            },
            {
              "internalType": "uint256",
              "name": "wethB",
              "type": "uint256"
            },
            {
              "internalType": "address",
              "name": "lowerPool",
              "type": "address"
            },
            {
              "internalType": "address",
              "name": "otherPool",
              "type": "address"
            }
          ],
          "internalType": "struct ArBot.Reserves",
          "name": "reserves",
          "type": "tuple"
        }
      ],
      "stateMutability": "view",
      "type": "function"
    }
  ],
  "transactionHash": "0x446fbe18dbfeaa603154b2acb2bcba1f2639c75b63f3ba2ae657551af18388e5",
  "args": [],
  "solcInputHash": "3ec65cd5f4dedb6c87507e2d3ce892af",
  "bytecode": "0x608060405234801561001057600080fd5b50611d31806100206000396000f3fe608060405234801561001057600080fd5b50600436106100415760003560e01c8063873b4c6714610046578063d52bb6f414610076578063d6d7f210146100a6575b600080fd5b610060600480360381019061005b919061111d565b6100d6565b60405161006d9190611347565b60405180910390f35b610090600480360381019061008b919061111d565b61010f565b60405161009d9190611484565b60405180910390f35b6100c060048036038101906100bb919061111d565b61048b565b6040516100cd919061149f565b60405180910390f35b60008173ffffffffffffffffffffffffffffffffffffffff168373ffffffffffffffffffffffffffffffffffffffff1610905092915050565b61011761107c565b6000808473ffffffffffffffffffffffffffffffffffffffff16630902f1ac6040518163ffffffff1660e01b815260040160606040518083038186803b15801561016057600080fd5b505afa158015610174573d6000803e3d6000fd5b505050506040513d601f19601f820116820180604052508101906101989190611159565b506dffffffffffffffffffffffffffff1691506dffffffffffffffffffffffffffff1691506000808573ffffffffffffffffffffffffffffffffffffffff16630902f1ac6040518163ffffffff1660e01b815260040160606040518083038186803b15801561020657600080fd5b505afa15801561021a573d6000803e3d6000fd5b505050506040513d601f19601f8201168201806040525081019061023e9190611159565b506dffffffffffffffffffffffffffff1691506dffffffffffffffffffffffffffff1691506000808486610272919061162a565b838561027e919061162a565b915091506102c06040518060400160405280601281526020017f5072696365204441492070657220776574680000000000000000000000000000815250610596565b6102ff6040518060400160405280600581526020017f506f6f6c300000000000000000000000000000000000000000000000000000008152508361062f565b61033e6040518060400160405280600581526020017f506f6f6c310000000000000000000000000000000000000000000000000000008152508261062f565b600081831061034d578861034f565b895b905060008973ffffffffffffffffffffffffffffffffffffffff168273ffffffffffffffffffffffffffffffffffffffff161461038c578961038e565b8a5b90508a73ffffffffffffffffffffffffffffffffffffffff168273ffffffffffffffffffffffffffffffffffffffff1614610421576040518060c001604052808781526020018681526020018981526020018881526020018373ffffffffffffffffffffffffffffffffffffffff1681526020018273ffffffffffffffffffffffffffffffffffffffff1681525061047b565b6040518060c001604052808981526020018881526020018781526020018681526020018373ffffffffffffffffffffffffffffffffffffffff1681526020018273ffffffffffffffffffffffffffffffffffffffff168152505b9850505050505050505092915050565b600080610498848461010f565b905060006104a5826106cb565b90506105006040518060400160405280600981526020017f6c6f616e20616d743a00000000000000000000000000000000000000000000008152506104fb670de0b6b3a764000084610aec90919063ffffffff16565b61062f565b60006105158284600001518560200151610b02565b9050600061052c8385606001518660400151610c15565b905061056f6040518060400160405280600881526020017f50726f6669743f20000000000000000000000000000000000000000000000000815250838311610d1b565b81811161057d57600061058a565b81816105899190611a0e565b5b94505050505092915050565b61062c816040516024016105aa9190611362565b6040516020818303038152906040527f41304fac000000000000000000000000000000000000000000000000000000007bffffffffffffffffffffffffffffffffffffffffffffffffffffffff19166020820180517bffffffffffffffffffffffffffffffffffffffffffffffffffffffff8381831617835250505050610db7565b50565b6106c782826040516024016106459291906113b4565b6040516020818303038152906040527f9710a9d0000000000000000000000000000000000000000000000000000000007bffffffffffffffffffffffffffffffffffffffffffffffffffffffff19166020820180517bffffffffffffffffffffffffffffffffffffffffffffffffffffffff8381831617835250505050610db7565b5050565b6000806106d783610de0565b9050600069d3c21bcecceda10000008211156106fe5768056bc75e2d631000009050610828565b69152d02c7e14af680000082111561072057678ac7230489e800009050610827565b69021e19e0c9bab240000082111561074257670de0b6b3a76400009050610826565b683635c9adc5dea000008211156107635767016345785d8a00009050610825565b68056bc75e2d6310000082111561078357662386f26fc100009050610824565b678ac7230489e800008211156107a25766038d7ea4c680009050610823565b670de0b6b3a76400008211156107c057655af3107a40009050610822565b67016345785d8a00008211156107de576509184e72a0009050610821565b662386f26fc100008211156107fa5764e8d4a510009050610820565b66038d7ea4c680008211156108165764174876e800905061081f565b6402540be40090505b5b5b5b5b5b5b5b5b5b6108856040518060400160405280600681526020017f646169413a200000000000000000000000000000000000000000000000000000815250610880670de0b6b3a76400008760000151610aec90919063ffffffff16565b61062f565b6108e26040518060400160405280600781526020017f77657468413a20000000000000000000000000000000000000000000000000008152506108dd670de0b6b3a76400008760200151610aec90919063ffffffff16565b61062f565b61093f6040518060400160405280600681526020017f646169423a20000000000000000000000000000000000000000000000000000081525061093a670de0b6b3a76400008760400151610aec90919063ffffffff16565b61062f565b61099c6040518060400160405280600781526020017f77657468423a2000000000000000000000000000000000000000000000000000815250610997670de0b6b3a76400008760600151610aec90919063ffffffff16565b61062f565b6000806000806109b9858960000151610aec90919063ffffffff16565b6109d0868a60200151610aec90919063ffffffff16565b6109e7878b60400151610aec90919063ffffffff16565b6109fe888c60600151610aec90919063ffffffff16565b9350935093509350600080610a1586858786610e3c565b91509150600082138015610a2857508482125b8015610a3357508282125b80610a545750600081138015610a4857508481125b8015610a5357508281125b5b610a93576040517f08c379a0000000000000000000000000000000000000000000000000000000008152600401610a8a906113e4565b60405180910390fd5b600082138015610aa257508482125b8015610aad57508282125b610ac957610ac48782610fc090919063ffffffff16565b610add565b610adc8783610fc090919063ffffffff16565b5b98505050505050505050919050565b60008183610afa919061162a565b905092915050565b6000808411610b46576040517f08c379a0000000000000000000000000000000000000000000000000000000008152600401610b3d90611404565b60405180910390fd5b600083118015610b565750600082115b610b95576040517f08c379a0000000000000000000000000000000000000000000000000000000008152600401610b8c90611424565b60405180910390fd5b6000610bbe6103e8610bb08787610fc090919063ffffffff16565b610fc090919063ffffffff16565b90506000610be96103e5610bdb8887610fd690919063ffffffff16565b610fc090919063ffffffff16565b9050610c0a60018284610bfc919061162a565b610fec90919063ffffffff16565b925050509392505050565b6000808411610c59576040517f08c379a0000000000000000000000000000000000000000000000000000000008152600401610c5090611444565b60405180910390fd5b600083118015610c695750600082115b610ca8576040517f08c379a0000000000000000000000000000000000000000000000000000000008152600401610c9f90611424565b60405180910390fd5b6000610cbf6103e586610fc090919063ffffffff16565b90506000610cd68483610fc090919063ffffffff16565b90506000610d0183610cf36103e889610fc090919063ffffffff16565b610fec90919063ffffffff16565b90508082610d0f919061162a565b93505050509392505050565b610db38282604051602401610d31929190611384565b6040516020818303038152906040527fc3b55635000000000000000000000000000000000000000000000000000000007bffffffffffffffffffffffffffffffffffffffffffffffffffffffff19166020820180517bffffffffffffffffffffffffffffffffffffffffffffffffffffffff8381831617835250505050610db7565b5050565b60008151905060006a636f6e736f6c652e6c6f679050602083016000808483855afa5050505050565b6000808260400151836000015110610dfc578260400151610e02565b82600001515b90508260600151836020015110610e1d578260600151610e23565b82602001515b9150808210610e325780610e34565b815b915050919050565b60008060008386610e4d9190611809565b8588610e599190611809565b610e63919061197a565b905060008688610e7391906114d6565b85876002610e819190611809565b610e8b9190611809565b610e959190611809565b905060008688610ea59190611809565b868a610eb19190611809565b610ebb919061197a565b8688610ec79190611809565b610ed19190611809565b9050600081846004610ee39190611809565b610eed9190611809565b600284610efa919061179d565b610f04919061197a565b905060008113610f49576040517f08c379a0000000000000000000000000000000000000000000000000000000008152600401610f4090611464565b60405180910390fd5b6000610f5482611002565b9050846002610f639190611809565b8185610f6e90611afe565b610f7891906114d6565b610f8291906115c0565b856002610f8f9190611809565b8286610f9a90611afe565b610fa4919061197a565b610fae91906115c0565b96509650505050505094509492505050565b60008183610fce9190611920565b905092915050565b60008183610fe49190611a0e565b905092915050565b60008183610ffa919061156a565b905092915050565b600060038211156110695781905060006001600284611021919061162a565b61102b919061156a565b90505b81811015611063578091506002818285611048919061162a565b611052919061156a565b61105c919061162a565b905061102e565b50611077565b6000821461107657600190505b5b919050565b6040518060c0016040528060008152602001600081526020016000815260200160008152602001600073ffffffffffffffffffffffffffffffffffffffff168152602001600073ffffffffffffffffffffffffffffffffffffffff1681525090565b6000813590506110ed81611cb6565b92915050565b60008151905061110281611ccd565b92915050565b60008151905061111781611ce4565b92915050565b6000806040838503121561113057600080fd5b600061113e858286016110de565b925050602061114f858286016110de565b9150509250929050565b60008060006060848603121561116e57600080fd5b600061117c868287016110f3565b935050602061118d868287016110f3565b925050604061119e86828701611108565b9150509250925092565b6111b181611a42565b82525050565b6111c081611a54565b82525050565b60006111d1826114ba565b6111db81856114c5565b93506111eb818560208601611acb565b6111f481611ba5565b840191505092915050565b600061120c6011836114c5565b915061121782611bc3565b602082019050919050565b600061122f6021836114c5565b915061123a82611bec565b604082019050919050565b6000611252601d836114c5565b915061125d82611c3b565b602082019050919050565b60006112756020836114c5565b915061128082611c64565b602082019050919050565b60006112986017836114c5565b91506112a382611c8d565b602082019050919050565b60c0820160008201516112c46000850182611329565b5060208201516112d76020850182611329565b5060408201516112ea6040850182611329565b5060608201516112fd6060850182611329565b50608082015161131060808501826111a8565b5060a082015161132360a08501826111a8565b50505050565b61133281611aa4565b82525050565b61134181611aa4565b82525050565b600060208201905061135c60008301846111b7565b92915050565b6000602082019050818103600083015261137c81846111c6565b905092915050565b6000604082019050818103600083015261139e81856111c6565b90506113ad60208301846111b7565b9392505050565b600060408201905081810360008301526113ce81856111c6565b90506113dd6020830184611338565b9392505050565b600060208201905081810360008301526113fd816111ff565b9050919050565b6000602082019050818103600083015261141d81611222565b9050919050565b6000602082019050818103600083015261143d81611245565b9050919050565b6000602082019050818103600083015261145d81611268565b9050919050565b6000602082019050818103600083015261147d8161128b565b9050919050565b600060c08201905061149960008301846112ae565b92915050565b60006020820190506114b46000830184611338565b92915050565b600081519050919050565b600082825260208201905092915050565b60006114e182611a60565b91506114ec83611a60565b9250817f7fffffffffffffffffffffffffffffffffffffffffffffffffffffffffffffff0383136000831215161561152757611526611b47565b5b817f800000000000000000000000000000000000000000000000000000000000000003831260008312161561155f5761155e611b47565b5b828201905092915050565b600061157582611aa4565b915061158083611aa4565b9250827fffffffffffffffffffffffffffffffffffffffffffffffffffffffffffffffff038211156115b5576115b4611b47565b5b828201905092915050565b60006115cb82611a60565b91506115d683611a60565b9250826115e6576115e5611b76565b5b600160000383147f80000000000000000000000000000000000000000000000000000000000000008314161561161f5761161e611b47565b5b828205905092915050565b600061163582611aa4565b915061164083611aa4565b9250826116505761164f611b76565b5b828204905092915050565b6000808291508390505b60018511156116a55780860481111561168157611680611b47565b5b60018516156116905780820291505b808102905061169e85611bb6565b9450611665565b94509492505050565b600082600081146116c657600181146116d0576116d9565b6001915050611795565b82915050611795565b50816116e85760009050611795565b600190506000821360018114611705576000811461171d57611731565b82860483111561171857611717611b47565b5b611731565b8286058312156117305761172f611b47565b5b5b50600183161561173f578190505b818202915061174d83611bb6565b925061175b8584848461165b565b92509050818504811160008213161561177757611776611b47565b5b818405811260008212161561178f5761178e611b47565b5b81810290505b949350505050565b60006117a882611a60565b91506117b383611abe565b92506118017f7fffffffffffffffffffffffffffffffffffffffffffffffffffffffffffffff7f800000000000000000000000000000000000000000000000000000000000000085856116ae565b905092915050565b600061181482611a60565b915061181f83611a60565b9250827f7fffffffffffffffffffffffffffffffffffffffffffffffffffffffffffffff048211600084136000841316161561185e5761185d611b47565b5b817f8000000000000000000000000000000000000000000000000000000000000000058312600084126000841316161561189b5761189a611b47565b5b827f800000000000000000000000000000000000000000000000000000000000000005821260008413600084121616156118d8576118d7611b47565b5b827f7fffffffffffffffffffffffffffffffffffffffffffffffffffffffffffffff058212600084126000841216161561191557611914611b47565b5b828202905092915050565b600061192b82611aa4565b915061193683611aa4565b9250817fffffffffffffffffffffffffffffffffffffffffffffffffffffffffffffffff048311821515161561196f5761196e611b47565b5b828202905092915050565b600061198582611a60565b915061199083611a60565b9250827f8000000000000000000000000000000000000000000000000000000000000000018212600084121516156119cb576119ca611b47565b5b827f7fffffffffffffffffffffffffffffffffffffffffffffffffffffffffffffff018213600084121615611a0357611a02611b47565b5b828203905092915050565b6000611a1982611aa4565b9150611a2483611aa4565b925082821015611a3757611a36611b47565b5b828203905092915050565b6000611a4d82611a84565b9050919050565b60008115159050919050565b6000819050919050565b60006dffffffffffffffffffffffffffff82169050919050565b600073ffffffffffffffffffffffffffffffffffffffff82169050919050565b6000819050919050565b600063ffffffff82169050919050565b600060ff82169050919050565b60005b83811015611ae9578082015181840152602081019050611ace565b83811115611af8576000848401525b50505050565b6000611b0982611a60565b91507f8000000000000000000000000000000000000000000000000000000000000000821415611b3c57611b3b611b47565b5b816000039050919050565b7f4e487b7100000000000000000000000000000000000000000000000000000000600052601160045260246000fd5b7f4e487b7100000000000000000000000000000000000000000000000000000000600052601260045260246000fd5b6000601f19601f8301169050919050565b60008160011c9050919050565b7f57726f6e6720696e707574206f72646572000000000000000000000000000000600082015250565b7f4172426f743a20494e53554646494349454e545f4f55545055545f414d4f554e60008201527f5400000000000000000000000000000000000000000000000000000000000000602082015250565b7f4172426f743a20494e53554646494349454e545f4c4951554944495459000000600082015250565b7f4172426f743a20494e53554646494349454e545f494e5055545f414d4f554e54600082015250565b7f4172426f743a206e6f207265616c20736f6c7574696f6e000000000000000000600082015250565b611cbf81611a42565b8114611cca57600080fd5b50565b611cd681611a6a565b8114611ce157600080fd5b50565b611ced81611aae565b8114611cf857600080fd5b5056fea26469706673582212205f2cede376799ee6d6dd0c165e754b6c1b1ac0bb67376f9c5007238cf028bdb864736f6c63430008040033",
  "devdoc": {
    "kind": "dev",
    "methods": {},
    "version": 1
  },
  "userdoc": {
    "kind": "user",
    "methods": {},
    "version": 1
  },
  "storageLayout": {
    "storage": [],
    "types": null
  }
}