{
  "address": "0x4EE6eCAD1c2Dae9f525404De8555724e3c35d07B",
  "abi": [
    {
      "inputs": [
        {
          "internalType": "address",
          "name": "tokenA",
          "type": "address"
        },
        {
          "internalType": "address",
          "name": "tokenB",
          "type": "address"
        }
      ],
      "name": "addressCompare",
      "outputs": [
        {
          "internalType": "bool",
          "name": "",
          "type": "bool"
        }
      ],
      "stateMutability": "pure",
      "type": "function"
    },
    {
      "inputs": [
        {
          "internalType": "address",
          "name": "pool1",
          "type": "address"
        },
        {
          "internalType": "address",
          "name": "pool2",
          "type": "address"
        }
      ],
      "name": "getReserves",
      "outputs": [
        {
          "components": [
            {
              "internalType": "uint256",
              "name": "dai1",
              "type": "uint256"
            },
            {
              "internalType": "uint256",
              "name": "weth1",
              "type": "uint256"
            },
            {
              "internalType": "uint256",
              "name": "dai2",
              "type": "uint256"
            },
            {
              "internalType": "uint256",
              "name": "weth2",
              "type": "uint256"
            }
          ],
          "internalType": "struct ArBot.Reserves",
          "name": "reserves",
          "type": "tuple"
        }
      ],
      "stateMutability": "view",
      "type": "function"
    }
  ],
  "transactionHash": "0xad408774ee67e1f12c7c0a60b65400552e8384634bfc056000e5b4ab6918fc35",
  "args": [],
  "solcInputHash": "fffa5814148016e0bdbee608089a8bdb",
  "bytecode": "0x608060405234801561001057600080fd5b5061070b806100206000396000f3fe608060405234801561001057600080fd5b50600436106100365760003560e01c8063873b4c671461003b578063d52bb6f41461006b575b600080fd5b61005560048036038101906100509190610404565b61009b565b604051610062919061054a565b60405180910390f35b61008560048036038101906100809190610404565b6100d4565b60405161009291906105a3565b60405180910390f35b60008173ffffffffffffffffffffffffffffffffffffffff168373ffffffffffffffffffffffffffffffffffffffff1610905092915050565b6100dc61039d565b6000808473ffffffffffffffffffffffffffffffffffffffff16630902f1ac6040518163ffffffff1660e01b815260040160606040518083038186803b15801561012557600080fd5b505afa158015610139573d6000803e3d6000fd5b505050506040513d601f19601f8201168201806040525081019061015d9190610440565b506dffffffffffffffffffffffffffff1691506dffffffffffffffffffffffffffff1691506000808573ffffffffffffffffffffffffffffffffffffffff16630902f1ac6040518163ffffffff1660e01b815260040160606040518083038186803b1580156101cb57600080fd5b505afa1580156101df573d6000803e3d6000fd5b505050506040513d601f19601f820116820180604052508101906102039190610440565b506dffffffffffffffffffffffffffff1691506dffffffffffffffffffffffffffff169150604051806080016040528085815260200184815260200183815260200182815250945061028b6040518060400160405280600a81526020017f5265736572766573313a0000000000000000000000000000000000000000000081525085856102d5565b6102cb6040518060400160405280600a81526020017f5265736572766573323a0000000000000000000000000000000000000000000081525083836102d5565b5050505092915050565b61036f8383836040516024016102ed93929190610565565b6040516020818303038152906040527f969cdd03000000000000000000000000000000000000000000000000000000007bffffffffffffffffffffffffffffffffffffffffffffffffffffffff19166020820180517bffffffffffffffffffffffffffffffffffffffffffffffffffffffff8381831617835250505050610374565b505050565b60008151905060006a636f6e736f6c652e6c6f679050602083016000808483855afa5050505050565b6040518060800160405280600081526020016000815260200160008152602001600081525090565b6000813590506103d481610690565b92915050565b6000815190506103e9816106a7565b92915050565b6000815190506103fe816106be565b92915050565b6000806040838503121561041757600080fd5b6000610425858286016103c5565b9250506020610436858286016103c5565b9150509250929050565b60008060006060848603121561045557600080fd5b6000610463868287016103da565b9350506020610474868287016103da565b9250506040610485868287016103ef565b9150509250925092565b610498816105ec565b82525050565b60006104a9826105be565b6104b381856105c9565b93506104c381856020860161064c565b6104cc8161067f565b840191505092915050565b6080820160008201516104ed600085018261052c565b506020820151610500602085018261052c565b506040820151610513604085018261052c565b506060820151610526606085018261052c565b50505050565b61053581610632565b82525050565b61054481610632565b82525050565b600060208201905061055f600083018461048f565b92915050565b6000606082019050818103600083015261057f818661049e565b905061058e602083018561053b565b61059b604083018461053b565b949350505050565b60006080820190506105b860008301846104d7565b92915050565b600081519050919050565b600082825260208201905092915050565b60006105e582610612565b9050919050565b60008115159050919050565b60006dffffffffffffffffffffffffffff82169050919050565b600073ffffffffffffffffffffffffffffffffffffffff82169050919050565b6000819050919050565b600063ffffffff82169050919050565b60005b8381101561066a57808201518184015260208101905061064f565b83811115610679576000848401525b50505050565b6000601f19601f8301169050919050565b610699816105da565b81146106a457600080fd5b50565b6106b0816105f8565b81146106bb57600080fd5b50565b6106c78161063c565b81146106d257600080fd5b5056fea264697066735822122063272899cc39ba7197e94f05a0adbc8fb3eee9998eafe2e82bf560f49af4cae964736f6c63430008040033",
  "devdoc": {
    "kind": "dev",
    "methods": {},
    "version": 1
  },
  "userdoc": {
    "kind": "user",
    "methods": {},
    "version": 1
  },
  "storageLayout": {
    "storage": [],
    "types": null
  }
}