{
  "address": "0xBEc49fA140aCaA83533fB00A2BB19bDdd0290f25",
  "abi": [
    {
      "stateMutability": "nonpayable",
      "type": "fallback"
    },
    {
      "inputs": [],
      "name": "DAI",
      "outputs": [
        {
          "internalType": "address",
          "name": "",
          "type": "address"
        }
      ],
      "stateMutability": "view",
      "type": "function"
    },
    {
      "inputs": [],
      "name": "WETH",
      "outputs": [
        {
          "internalType": "address",
          "name": "",
          "type": "address"
        }
      ],
      "stateMutability": "view",
      "type": "function"
    },
    {
      "inputs": [
        {
          "internalType": "address",
          "name": "tokenA",
          "type": "address"
        },
        {
          "internalType": "address",
          "name": "tokenB",
          "type": "address"
        }
      ],
      "name": "addressCompare",
      "outputs": [
        {
          "internalType": "bool",
          "name": "",
          "type": "bool"
        }
      ],
      "stateMutability": "pure",
      "type": "function"
    },
    {
      "inputs": [
        {
          "internalType": "address",
          "name": "_pool0",
          "type": "address"
        },
        {
          "internalType": "address",
          "name": "_pool1",
          "type": "address"
        }
      ],
      "name": "arbitrate",
      "outputs": [],
      "stateMutability": "nonpayable",
      "type": "function"
    },
    {
      "inputs": [
        {
          "internalType": "address",
          "name": "_pool0",
          "type": "address"
        },
        {
          "internalType": "address",
          "name": "_pool1",
          "type": "address"
        }
      ],
      "name": "calculateProfit",
      "outputs": [
        {
          "internalType": "uint256",
          "name": "profit",
          "type": "uint256"
        }
      ],
      "stateMutability": "view",
      "type": "function"
    },
    {
      "inputs": [
        {
          "internalType": "address",
          "name": "_pool0",
          "type": "address"
        },
        {
          "internalType": "address",
          "name": "_pool1",
          "type": "address"
        }
      ],
      "name": "getReserves",
      "outputs": [
        {
          "components": [
            {
              "internalType": "uint256",
              "name": "daiA",
              "type": "uint256"
            },
            {
              "internalType": "uint256",
              "name": "wethA",
              "type": "uint256"
            },
            {
              "internalType": "uint256",
              "name": "daiB",
              "type": "uint256"
            },
            {
              "internalType": "uint256",
              "name": "wethB",
              "type": "uint256"
            },
            {
              "internalType": "address",
              "name": "lowerPool",
              "type": "address"
            },
            {
              "internalType": "address",
              "name": "otherPool",
              "type": "address"
            }
          ],
          "internalType": "struct ArBot.Reserves",
          "name": "reserves",
          "type": "tuple"
        }
      ],
      "stateMutability": "view",
      "type": "function"
    },
    {
      "inputs": [
        {
          "internalType": "address",
          "name": "sender",
          "type": "address"
        },
        {
          "internalType": "uint256",
          "name": "amount0",
          "type": "uint256"
        },
        {
          "internalType": "uint256",
          "name": "amount1",
          "type": "uint256"
        },
        {
          "internalType": "bytes",
          "name": "data",
          "type": "bytes"
        }
      ],
      "name": "uniswapV2Call",
      "outputs": [],
      "stateMutability": "nonpayable",
      "type": "function"
    },
    {
      "stateMutability": "payable",
      "type": "receive"
    }
  ],
  "transactionHash": "0xf63d16ed821f547eff1b4fe3243072eddd57bdea91c8446f724e6e0fd8cc6b49",
  "args": [],
  "solcInputHash": "b1756209e90e7b48ebece587ebdc2f94",
  "bytecode": "0x608060405234801561001057600080fd5b50612e4a806100206000396000f3fe6080604052600436106100745760003560e01c8063ad5c46481161004e578063ad5c464814610165578063d52bb6f414610190578063d6d7f210146101cd578063e0bab4c41461020a5761007b565b806310d1e85c146100d6578063514e56e5146100ff578063873b4c67146101285761007b565b3661007b57005b34801561008757600080fd5b506000366060600080600080868660049080926100a6939291906123cb565b8101906100b39190611b13565b93509350935093506100c784848484610235565b50505050915050805190602001f35b3480156100e257600080fd5b506100fd60048036038101906100f89190611bca565b610235565b005b34801561010b57600080fd5b5061012660048036038101906101219190611b8e565b61044d565b005b34801561013457600080fd5b5061014f600480360381019061014a9190611b8e565b610610565b60405161015c919061206c565b60405180910390f35b34801561017157600080fd5b5061017a610649565b6040516101879190612028565b60405180910390f35b34801561019c57600080fd5b506101b760048036038101906101b29190611b8e565b610661565b6040516101c491906122b0565b60405180910390f35b3480156101d957600080fd5b506101f460048036038101906101ef9190611b8e565b6109dd565b60405161020191906122cb565b60405180910390f35b34801561021657600080fd5b5061021f610ae8565b60405161022c9190612028565b60405180910390f35b3073ffffffffffffffffffffffffffffffffffffffff168473ffffffffffffffffffffffffffffffffffffffff16146102a3576040517f08c379a000000000000000000000000000000000000000000000000000000000815260040161029a906121d5565b60405180910390fd5b60008084116102b257826102b4565b835b90506000828060200190518101906102cc9190611c6e565b905061031181602001518373c02aaa39b223fe8d0a0e5c4f27ead9083c756cc273ffffffffffffffffffffffffffffffffffffffff16610b009092919063ffffffff16565b806020015173ffffffffffffffffffffffffffffffffffffffff1663022c0d9f8260600151600030600067ffffffffffffffff81111561037a577f4e487b7100000000000000000000000000000000000000000000000000000000600052604160045260246000fd5b6040519080825280601f01601f1916602001820160405280156103ac5781602001600182028036833780820191505090505b506040518563ffffffff1660e01b81526004016103cc94939291906122e6565b600060405180830381600087803b1580156103e657600080fd5b505af11580156103fa573d6000803e3d6000fd5b5050505061044581600001518260400151736b175474e89094c44da98b954eedeac495271d0f73ffffffffffffffffffffffffffffffffffffffff16610b009092919063ffffffff16565b505050505050565b60006104598383610661565b9050600061046682610b86565b9050600061047d8284600001518560200151610fa7565b9050600061049483856060015186604001516110ba565b90508181116104d8576040517f08c379a00000000000000000000000000000000000000000000000000000000081526004016104cf906121f5565b60405180910390fd5b6104e06118d9565b8460800151816000019073ffffffffffffffffffffffffffffffffffffffff16908173ffffffffffffffffffffffffffffffffffffffff16815250508460a00151816020019073ffffffffffffffffffffffffffffffffffffffff16908173ffffffffffffffffffffffffffffffffffffffff1681525050838160400181815250508181606001818152505060008160405160200161057f9190612295565b6040516020818303038152906040529050856080015173ffffffffffffffffffffffffffffffffffffffff1663022c0d9f60008730856040518563ffffffff1660e01b81526004016105d49493929190612087565b600060405180830381600087803b1580156105ee57600080fd5b505af1158015610602573d6000803e3d6000fd5b505050505050505050505050565b60008173ffffffffffffffffffffffffffffffffffffffff168373ffffffffffffffffffffffffffffffffffffffff1610905092915050565b73c02aaa39b223fe8d0a0e5c4f27ead9083c756cc281565b61066961192d565b6000808473ffffffffffffffffffffffffffffffffffffffff16630902f1ac6040518163ffffffff1660e01b815260040160606040518083038186803b1580156106b257600080fd5b505afa1580156106c6573d6000803e3d6000fd5b505050506040513d601f19601f820116820180604052508101906106ea9190611c97565b506dffffffffffffffffffffffffffff1691506dffffffffffffffffffffffffffff1691506000808573ffffffffffffffffffffffffffffffffffffffff16630902f1ac6040518163ffffffff1660e01b815260040160606040518083038186803b15801561075857600080fd5b505afa15801561076c573d6000803e3d6000fd5b505050506040513d601f19601f820116820180604052508101906107909190611c97565b506dffffffffffffffffffffffffffff1691506dffffffffffffffffffffffffffff16915060008084866107c49190612552565b83856107d09190612552565b915091506108126040518060400160405280601281526020017f50726963652044414920706572207765746800000000000000000000000000008152506111c0565b6108516040518060400160405280600581526020017f506f6f6c3000000000000000000000000000000000000000000000000000000081525083611259565b6108906040518060400160405280600581526020017f506f6f6c3100000000000000000000000000000000000000000000000000000081525082611259565b600081831061089f57886108a1565b895b905060008973ffffffffffffffffffffffffffffffffffffffff168273ffffffffffffffffffffffffffffffffffffffff16146108de57896108e0565b8a5b90508a73ffffffffffffffffffffffffffffffffffffffff168273ffffffffffffffffffffffffffffffffffffffff1614610973576040518060c001604052808781526020018681526020018981526020018881526020018373ffffffffffffffffffffffffffffffffffffffff1681526020018273ffffffffffffffffffffffffffffffffffffffff168152506109cd565b6040518060c001604052808981526020018881526020018781526020018681526020018373ffffffffffffffffffffffffffffffffffffffff1681526020018273ffffffffffffffffffffffffffffffffffffffff168152505b9850505050505050505092915050565b6000806109ea8484610661565b905060006109f782610b86565b9050610a526040518060400160405280600981526020017f6c6f616e20616d743a0000000000000000000000000000000000000000000000815250610a4d670de0b6b3a7640000846112f590919063ffffffff16565b611259565b6000610a678284600001518560200151610fa7565b90506000610a7e83856060015186604001516110ba565b9050610ac16040518060400160405280600881526020017f50726f6669743f2000000000000000000000000000000000000000000000000081525083831161130b565b818111610acf576000610adc565b8181610adb9190612936565b5b94505050505092915050565b736b175474e89094c44da98b954eedeac495271d0f81565b610b818363a9059cbb60e01b8484604051602401610b1f929190612043565b604051602081830303815290604052907bffffffffffffffffffffffffffffffffffffffffffffffffffffffff19166020820180517bffffffffffffffffffffffffffffffffffffffffffffffffffffffff83818316178352505050506113a7565b505050565b600080610b928361146e565b9050600069d3c21bcecceda1000000821115610bb95768056bc75e2d631000009050610ce3565b69152d02c7e14af6800000821115610bdb57678ac7230489e800009050610ce2565b69021e19e0c9bab2400000821115610bfd57670de0b6b3a76400009050610ce1565b683635c9adc5dea00000821115610c1e5767016345785d8a00009050610ce0565b68056bc75e2d63100000821115610c3e57662386f26fc100009050610cdf565b678ac7230489e80000821115610c5d5766038d7ea4c680009050610cde565b670de0b6b3a7640000821115610c7b57655af3107a40009050610cdd565b67016345785d8a0000821115610c99576509184e72a0009050610cdc565b662386f26fc10000821115610cb55764e8d4a510009050610cdb565b66038d7ea4c68000821115610cd15764174876e8009050610cda565b6402540be40090505b5b5b5b5b5b5b5b5b5b610d406040518060400160405280600681526020017f646169413a200000000000000000000000000000000000000000000000000000815250610d3b670de0b6b3a764000087600001516112f590919063ffffffff16565b611259565b610d9d6040518060400160405280600781526020017f77657468413a2000000000000000000000000000000000000000000000000000815250610d98670de0b6b3a764000087602001516112f590919063ffffffff16565b611259565b610dfa6040518060400160405280600681526020017f646169423a200000000000000000000000000000000000000000000000000000815250610df5670de0b6b3a764000087604001516112f590919063ffffffff16565b611259565b610e576040518060400160405280600781526020017f77657468423a2000000000000000000000000000000000000000000000000000815250610e52670de0b6b3a764000087606001516112f590919063ffffffff16565b611259565b600080600080610e748589600001516112f590919063ffffffff16565b610e8b868a602001516112f590919063ffffffff16565b610ea2878b604001516112f590919063ffffffff16565b610eb9888c606001516112f590919063ffffffff16565b9350935093509350600080610ed0868587866114ca565b91509150600082138015610ee357508482125b8015610eee57508282125b80610f0f5750600081138015610f0357508481125b8015610f0e57508281125b5b610f4e576040517f08c379a0000000000000000000000000000000000000000000000000000000008152600401610f4590612155565b60405180910390fd5b600082138015610f5d57508482125b8015610f6857508282125b610f8457610f7f878261164e90919063ffffffff16565b610f98565b610f97878361164e90919063ffffffff16565b5b98505050505050505050919050565b6000808411610feb576040517f08c379a0000000000000000000000000000000000000000000000000000000008152600401610fe290612175565b60405180910390fd5b600083118015610ffb5750600082115b61103a576040517f08c379a000000000000000000000000000000000000000000000000000000000815260040161103190612195565b60405180910390fd5b60006110636103e8611055878761164e90919063ffffffff16565b61164e90919063ffffffff16565b9050600061108e6103e5611080888761166490919063ffffffff16565b61164e90919063ffffffff16565b90506110af600182846110a19190612552565b61167a90919063ffffffff16565b925050509392505050565b60008084116110fe576040517f08c379a00000000000000000000000000000000000000000000000000000000081526004016110f590612215565b60405180910390fd5b60008311801561110e5750600082115b61114d576040517f08c379a000000000000000000000000000000000000000000000000000000000815260040161114490612195565b60405180910390fd5b60006111646103e58661164e90919063ffffffff16565b9050600061117b848361164e90919063ffffffff16565b905060006111a6836111986103e88961164e90919063ffffffff16565b61167a90919063ffffffff16565b905080826111b49190612552565b93505050509392505050565b611256816040516024016111d491906120d3565b6040516020818303038152906040527f41304fac000000000000000000000000000000000000000000000000000000007bffffffffffffffffffffffffffffffffffffffffffffffffffffffff19166020820180517bffffffffffffffffffffffffffffffffffffffffffffffffffffffff8381831617835250505050611690565b50565b6112f1828260405160240161126f929190612125565b6040516020818303038152906040527f9710a9d0000000000000000000000000000000000000000000000000000000007bffffffffffffffffffffffffffffffffffffffffffffffffffffffff19166020820180517bffffffffffffffffffffffffffffffffffffffffffffffffffffffff8381831617835250505050611690565b5050565b600081836113039190612552565b905092915050565b6113a382826040516024016113219291906120f5565b6040516020818303038152906040527fc3b55635000000000000000000000000000000000000000000000000000000007bffffffffffffffffffffffffffffffffffffffffffffffffffffffff19166020820180517bffffffffffffffffffffffffffffffffffffffffffffffffffffffff8381831617835250505050611690565b5050565b6000611409826040518060400160405280602081526020017f5361666545524332303a206c6f772d6c6576656c2063616c6c206661696c65648152508573ffffffffffffffffffffffffffffffffffffffff166116b99092919063ffffffff16565b905060008151111561146957808060200190518101906114299190611c45565b611468576040517f08c379a000000000000000000000000000000000000000000000000000000000815260040161145f90612275565b60405180910390fd5b5b505050565b600080826040015183600001511061148a578260400151611490565b82600001515b905082606001518360200151106114ab5782606001516114b1565b82602001515b91508082106114c057806114c2565b815b915050919050565b600080600083866114db9190612731565b85886114e79190612731565b6114f191906128a2565b90506000868861150191906123fe565b8587600261150f9190612731565b6115199190612731565b6115239190612731565b9050600086886115339190612731565b868a61153f9190612731565b61154991906128a2565b86886115559190612731565b61155f9190612731565b90506000818460046115719190612731565b61157b9190612731565b60028461158891906126c5565b61159291906128a2565b9050600081136115d7576040517f08c379a00000000000000000000000000000000000000000000000000000000081526004016115ce90612235565b60405180910390fd5b60006115e2826116d1565b90508460026115f19190612731565b81856115fc90612a8a565b61160691906123fe565b61161091906124e8565b85600261161d9190612731565b828661162890612a8a565b61163291906128a2565b61163c91906124e8565b96509650505050505094509492505050565b6000818361165c9190612848565b905092915050565b600081836116729190612936565b905092915050565b600081836116889190612492565b905092915050565b60008151905060006a636f6e736f6c652e6c6f679050602083016000808483855afa5050505050565b60606116c8848460008561174b565b90509392505050565b6000600382111561173857819050600060016002846116f09190612552565b6116fa9190612492565b90505b818110156117325780915060028182856117179190612552565b6117219190612492565b61172b9190612552565b90506116fd565b50611746565b6000821461174557600190505b5b919050565b606082471015611790576040517f08c379a0000000000000000000000000000000000000000000000000000000008152600401611787906121b5565b60405180910390fd5b6117998561185f565b6117d8576040517f08c379a00000000000000000000000000000000000000000000000000000000081526004016117cf90612255565b60405180910390fd5b6000808673ffffffffffffffffffffffffffffffffffffffff1685876040516118019190612011565b60006040518083038185875af1925050503d806000811461183e576040519150601f19603f3d011682016040523d82523d6000602084013e611843565b606091505b5091509150611853828286611872565b92505050949350505050565b600080823b905060008111915050919050565b60608315611882578290506118d2565b6000835111156118955782518084602001fd5b816040517f08c379a00000000000000000000000000000000000000000000000000000000081526004016118c991906120d3565b60405180910390fd5b9392505050565b6040518060800160405280600073ffffffffffffffffffffffffffffffffffffffff168152602001600073ffffffffffffffffffffffffffffffffffffffff16815260200160008152602001600081525090565b6040518060c0016040528060008152602001600081526020016000815260200160008152602001600073ffffffffffffffffffffffffffffffffffffffff168152602001600073ffffffffffffffffffffffffffffffffffffffff1681525090565b60006119a261199d84612357565b612332565b9050828152602081018484840111156119ba57600080fd5b6119c5848285612a17565b509392505050565b6000813590506119dc81612d8a565b92915050565b6000815190506119f181612d8a565b92915050565b600081359050611a0681612da1565b92915050565b600081519050611a1b81612db8565b92915050565b600082601f830112611a3257600080fd5b8135611a4284826020860161198f565b91505092915050565b600060808284031215611a5d57600080fd5b611a676080612332565b90506000611a77848285016119e2565b6000830152506020611a8b848285016119e2565b6020830152506040611a9f84828501611ae9565b6040830152506060611ab384828501611ae9565b60608301525092915050565b600081519050611ace81612dcf565b92915050565b600081359050611ae381612de6565b92915050565b600081519050611af881612de6565b92915050565b600081519050611b0d81612dfd565b92915050565b60008060008060808587031215611b2957600080fd5b6000611b37878288016119f7565b9450506020611b4887828801611ad4565b9350506040611b5987828801611ad4565b925050606085013567ffffffffffffffff811115611b7657600080fd5b611b8287828801611a21565b91505092959194509250565b60008060408385031215611ba157600080fd5b6000611baf858286016119cd565b9250506020611bc0858286016119cd565b9150509250929050565b60008060008060808587031215611be057600080fd5b6000611bee878288016119cd565b9450506020611bff87828801611ad4565b9350506040611c1087828801611ad4565b925050606085013567ffffffffffffffff811115611c2d57600080fd5b611c3987828801611a21565b91505092959194509250565b600060208284031215611c5757600080fd5b6000611c6584828501611a0c565b91505092915050565b600060808284031215611c8057600080fd5b6000611c8e84828501611a4b565b91505092915050565b600080600060608486031215611cac57600080fd5b6000611cba86828701611abf565b9350506020611ccb86828701611abf565b9250506040611cdc86828701611afe565b9150509250925092565b611cef8161296a565b82525050565b611cfe8161296a565b82525050565b611d0d8161298e565b82525050565b6000611d1e82612388565b611d28818561239e565b9350611d38818560208601612a26565b611d4181612b60565b840191505092915050565b6000611d5782612388565b611d6181856123af565b9350611d71818560208601612a26565b80840191505092915050565b611d8681612a05565b82525050565b6000611d9782612393565b611da181856123ba565b9350611db1818560208601612a26565b611dba81612b60565b840191505092915050565b6000611dd26011836123ba565b9150611ddd82612b7e565b602082019050919050565b6000611df56021836123ba565b9150611e0082612ba7565b604082019050919050565b6000611e18601d836123ba565b9150611e2382612bf6565b602082019050919050565b6000611e3b6026836123ba565b9150611e4682612c1f565b604082019050919050565b6000611e5e6016836123ba565b9150611e6982612c6e565b602082019050919050565b6000611e816009836123ba565b9150611e8c82612c97565b602082019050919050565b6000611ea46020836123ba565b9150611eaf82612cc0565b602082019050919050565b6000611ec76017836123ba565b9150611ed282612ce9565b602082019050919050565b6000611eea601d836123ba565b9150611ef582612d12565b602082019050919050565b6000611f0d602a836123ba565b9150611f1882612d3b565b604082019050919050565b608082016000820151611f396000850182611ce6565b506020820151611f4c6020850182611ce6565b506040820151611f5f6040850182611ff3565b506060820151611f726060850182611ff3565b50505050565b60c082016000820151611f8e6000850182611ff3565b506020820151611fa16020850182611ff3565b506040820151611fb46040850182611ff3565b506060820151611fc76060850182611ff3565b506080820151611fda6080850182611ce6565b5060a0820151611fed60a0850182611ce6565b50505050565b611ffc816129de565b82525050565b61200b816129de565b82525050565b600061201d8284611d4c565b915081905092915050565b600060208201905061203d6000830184611cf5565b92915050565b60006040820190506120586000830185611cf5565b6120656020830184612002565b9392505050565b60006020820190506120816000830184611d04565b92915050565b600060808201905061209c6000830187611d7d565b6120a96020830186612002565b6120b66040830185611cf5565b81810360608301526120c88184611d13565b905095945050505050565b600060208201905081810360008301526120ed8184611d8c565b905092915050565b6000604082019050818103600083015261210f8185611d8c565b905061211e6020830184611d04565b9392505050565b6000604082019050818103600083015261213f8185611d8c565b905061214e6020830184612002565b9392505050565b6000602082019050818103600083015261216e81611dc5565b9050919050565b6000602082019050818103600083015261218e81611de8565b9050919050565b600060208201905081810360008301526121ae81611e0b565b9050919050565b600060208201905081810360008301526121ce81611e2e565b9050919050565b600060208201905081810360008301526121ee81611e51565b9050919050565b6000602082019050818103600083015261220e81611e74565b9050919050565b6000602082019050818103600083015261222e81611e97565b9050919050565b6000602082019050818103600083015261224e81611eba565b9050919050565b6000602082019050818103600083015261226e81611edd565b9050919050565b6000602082019050818103600083015261228e81611f00565b9050919050565b60006080820190506122aa6000830184611f23565b92915050565b600060c0820190506122c56000830184611f78565b92915050565b60006020820190506122e06000830184612002565b92915050565b60006080820190506122fb6000830187612002565b6123086020830186611d7d565b6123156040830185611cf5565b81810360608301526123278184611d13565b905095945050505050565b600061233c61234d565b90506123488282612a59565b919050565b6000604051905090565b600067ffffffffffffffff82111561237257612371612b31565b5b61237b82612b60565b9050602081019050919050565b600081519050919050565b600081519050919050565b600082825260208201905092915050565b600081905092915050565b600082825260208201905092915050565b600080858511156123db57600080fd5b838611156123e857600080fd5b6001850283019150848603905094509492505050565b60006124098261299a565b91506124148361299a565b9250817f7fffffffffffffffffffffffffffffffffffffffffffffffffffffffffffffff0383136000831215161561244f5761244e612ad3565b5b817f800000000000000000000000000000000000000000000000000000000000000003831260008312161561248757612486612ad3565b5b828201905092915050565b600061249d826129de565b91506124a8836129de565b9250827fffffffffffffffffffffffffffffffffffffffffffffffffffffffffffffffff038211156124dd576124dc612ad3565b5b828201905092915050565b60006124f38261299a565b91506124fe8361299a565b92508261250e5761250d612b02565b5b600160000383147f80000000000000000000000000000000000000000000000000000000000000008314161561254757612546612ad3565b5b828205905092915050565b600061255d826129de565b9150612568836129de565b92508261257857612577612b02565b5b828204905092915050565b6000808291508390505b60018511156125cd578086048111156125a9576125a8612ad3565b5b60018516156125b85780820291505b80810290506125c685612b71565b945061258d565b94509492505050565b600082600081146125ee57600181146125f857612601565b60019150506126bd565b829150506126bd565b508161261057600090506126bd565b60019050600082136001811461262d576000811461264557612659565b8286048311156126405761263f612ad3565b5b612659565b82860583121561265857612657612ad3565b5b5b506001831615612667578190505b818202915061267583612b71565b925061268385848484612583565b92509050818504811160008213161561269f5761269e612ad3565b5b81840581126000821216156126b7576126b6612ad3565b5b81810290505b949350505050565b60006126d08261299a565b91506126db836129f8565b92506127297f7fffffffffffffffffffffffffffffffffffffffffffffffffffffffffffffff7f800000000000000000000000000000000000000000000000000000000000000085856125d6565b905092915050565b600061273c8261299a565b91506127478361299a565b9250827f7fffffffffffffffffffffffffffffffffffffffffffffffffffffffffffffff048211600084136000841316161561278657612785612ad3565b5b817f800000000000000000000000000000000000000000000000000000000000000005831260008412600084131616156127c3576127c2612ad3565b5b827f80000000000000000000000000000000000000000000000000000000000000000582126000841360008412161615612800576127ff612ad3565b5b827f7fffffffffffffffffffffffffffffffffffffffffffffffffffffffffffffff058212600084126000841216161561283d5761283c612ad3565b5b828202905092915050565b6000612853826129de565b915061285e836129de565b9250817fffffffffffffffffffffffffffffffffffffffffffffffffffffffffffffffff048311821515161561289757612896612ad3565b5b828202905092915050565b60006128ad8261299a565b91506128b88361299a565b9250827f8000000000000000000000000000000000000000000000000000000000000000018212600084121516156128f3576128f2612ad3565b5b827f7fffffffffffffffffffffffffffffffffffffffffffffffffffffffffffffff01821360008412161561292b5761292a612ad3565b5b828203905092915050565b6000612941826129de565b915061294c836129de565b92508282101561295f5761295e612ad3565b5b828203905092915050565b6000612975826129be565b9050919050565b6000612987826129be565b9050919050565b60008115159050919050565b6000819050919050565b60006dffffffffffffffffffffffffffff82169050919050565b600073ffffffffffffffffffffffffffffffffffffffff82169050919050565b6000819050919050565b600063ffffffff82169050919050565b600060ff82169050919050565b6000612a10826129de565b9050919050565b82818337600083830152505050565b60005b83811015612a44578082015181840152602081019050612a29565b83811115612a53576000848401525b50505050565b612a6282612b60565b810181811067ffffffffffffffff82111715612a8157612a80612b31565b5b80604052505050565b6000612a958261299a565b91507f8000000000000000000000000000000000000000000000000000000000000000821415612ac857612ac7612ad3565b5b816000039050919050565b7f4e487b7100000000000000000000000000000000000000000000000000000000600052601160045260246000fd5b7f4e487b7100000000000000000000000000000000000000000000000000000000600052601260045260246000fd5b7f4e487b7100000000000000000000000000000000000000000000000000000000600052604160045260246000fd5b6000601f19601f8301169050919050565b60008160011c9050919050565b7f57726f6e6720696e707574206f72646572000000000000000000000000000000600082015250565b7f4172426f743a20494e53554646494349454e545f4f55545055545f414d4f554e60008201527f5400000000000000000000000000000000000000000000000000000000000000602082015250565b7f4172426f743a20494e53554646494349454e545f4c4951554944495459000000600082015250565b7f416464726573733a20696e73756666696369656e742062616c616e636520666f60008201527f722063616c6c0000000000000000000000000000000000000000000000000000602082015250565b7f4e6f742066726f6d207468697320636f6e747261637400000000000000000000600082015250565b7f4e6f2070726f6669740000000000000000000000000000000000000000000000600082015250565b7f4172426f743a20494e53554646494349454e545f494e5055545f414d4f554e54600082015250565b7f4172426f743a206e6f207265616c20736f6c7574696f6e000000000000000000600082015250565b7f416464726573733a2063616c6c20746f206e6f6e2d636f6e7472616374000000600082015250565b7f5361666545524332303a204552433230206f7065726174696f6e20646964206e60008201527f6f74207375636365656400000000000000000000000000000000000000000000602082015250565b612d938161296a565b8114612d9e57600080fd5b50565b612daa8161297c565b8114612db557600080fd5b50565b612dc18161298e565b8114612dcc57600080fd5b50565b612dd8816129a4565b8114612de357600080fd5b50565b612def816129de565b8114612dfa57600080fd5b50565b612e06816129e8565b8114612e1157600080fd5b5056fea264697066735822122060c5117fbc3603806ea7f6c12e96ebd4ff5b929ed0cbb1e540b5b23d8df483ec64736f6c63430008040033",
  "devdoc": {
    "kind": "dev",
    "methods": {},
    "version": 1
  },
  "userdoc": {
    "kind": "user",
    "methods": {},
    "version": 1
  },
  "storageLayout": {
    "storage": [],
    "types": null
  }
}